:100000000C9456000C94DF0B0C94840C0C94290D6A
:100010000C94CE0D0C9473000C9473000C9473002C
:100020000C9473000C9473000C9473000C94730084
:100030000C9473000C9473000C9473000C94730074
:100040000C9473000C9473000C9473000C94730064
:100050000C9473000C9473000C9473000C94730E46
:100060000C94960B0C9473000C9473000C94730016
:100070000C9473000C9473000C9473000C94730034
:100080000C9473000C9473000C9473000C94730024
:100090000C9473000C9473000C9473000C94730014
:1000A0000C9473000C9473000C94730011241FBE05
:1000B000CFEFDAE0DEBFCDBF12E0A0E0B1E0E2E7D3
:1000C000FEE102C005900D92A831B107D9F712E008
:1000D000A8E1B2E001C01D92AE35B107E1F70E9480
:1000E000AB060C94370F0C940000EF92FF920F9325
:1000F0001F937B018C0120E030E040E05FE40E9430
:10010000730387FD11C0C801B70120E030E040E073
:100110005FE40E9418020E94D3039B01AC012050AF
:1001200030404040504806C0C801B7010E94D30388
:100130009B01AC01B901CA011F910F91FF90EF9093
:100140000895A0E0B0E0E7EAF0E00C94040FFC01B1
:10015000EA018081823008F438C1DB019C91923041
:1001600008F430C1843059F4943009F02EC19181E3
:1001700011968C911197981709F021C126C19430DE
:1001800009F420C19230B1F4823009F01EC1CA01D5
:10019000AF0128E0DA010D90AD01DC010D92CD0137
:1001A0002150C1F7DB0111968C9111979181892320
:1001B00089830AC1823009F405C1C280D380DB0182
:1001C00012966D907C9013972481358146815781DA
:1001D0001496ED90FD900D911C911797C60186190C
:1001E00097095C0197FF04C0AA24BB24A81AB90A86
:1001F000B0E2AB16B1040CF061C0181619066CF52C
:10020000370148010A2C04C0969487947794679428
:100210000A94D2F781E090E0A0E0B0E00A2C04C09C
:10022000880F991FAA1FBB1F0A94D2F70197A10933
:10023000B1098E219F21A023B123EE24FF24870141
:10024000E3940097A105B10519F4EE24FF2487017A
:10025000E628F728082919293CC00097D1F1CA0CD3
:10026000DB1C39014A010A2C04C0969487947794C8
:1002700067940A94D2F781E090E0A0E0B0E00A2C05
:1002800004C0880F991FAA1FBB1F0A94D2F70197B9
:10029000A109B10982239323A423B52321E030E0EF
:1002A00040E050E00097A105B10519F420E030E0EE
:1002B000A90126293729482959290BC06C147D0426
:1002C00024F4EE24FF24870104C0630120E030E021
:1002D000A9018181FB019181891709F445C0882317
:1002E00049F0D801C701821B930BA40BB50B9C01ED
:1002F000AD0104C02E193F09400B510B57FD04C03E
:100300001982DB82CA820BC081E08983DB82CA82C8
:1003100050954095309521953F4F4F4F5F4F2C831F
:100320003D834E835F830DC0880F991FAA1FBB1F9B
:100330008C839D83AE83BF838A819B8101979B833E
:100340008A838C819D81AE81BF819C01AD0121504A
:100350003040404050402F3FEFEF3E07EFEF4E0759
:10036000EFE35E0708F30BC08983DB82CA822E0DA0
:100370003F1D401F511F2C833D834E835F8383E0CD
:1003800088832C813D814E815F8157FF1DC0DA013A
:10039000C90181709070A070B070569547953795DF
:1003A0002795822B932BA42BB52B8C839D83AE8317
:1003B000BF838A819B8101969B838A8305C0E0E08D
:1003C000F1E003C0FB0101C0FE01CF01CDB7DEB7F4
:1003D000EEE00C94200FA0E2B0E0E1EFF1E00C942D
:1003E0000C0F69837A838B839C832D833E834F8399
:1003F000588789E0E82EF12CEC0EFD1ECE01019607
:10040000B7010E94C5058E010F5E1F4FCE010596F4
:10041000B8010E94C505C701B801AE01475E5F4F34
:100420000E94A1000E94F704A096E6E00C94280F19
:10043000A0E2B0E0EEE1F2E00C940C0F69837A8365
:100440008B839C832D833E834F8358878E01075F68
:100450001F4FCE010196B8010E94C50591E1E92E1A
:10046000F12CEC0EFD1ECE010596B7010E94C505CC
:100470008A8991E089278A8BC801B701AE01475E5E
:100480005F4F0E94A1000E94F704A096E6E00C9442
:10049000280FA0E2B0E0EFE4F2E00C94000F6983D3
:1004A0007A838B839C832D833E834F835887CE0131
:1004B0000196BE01675F7F4F0E94C505CE0105967C
:1004C000BE016F5E7F4F0E94C5059985923078F01E
:1004D00089898230C0F0943019F4823041F4CBC065
:1004E000843019F4923079F4C6C0923051F481E02E
:1004F0002A859A89291709F480E08A87CE0109960E
:10050000BCC0823051F481E02A859A89291709F408
:1005100080E08A8BCE014196B0C06D847E848F844A
:100520009888ED88FE880F89188DE0E2F0E080E081
:1005300090E0DC01AA24BB24650120E030E0A901A1
:10054000B3016170707061157105D1F02E0D3F1D02
:10055000401F511F15012601280E391E4A1E5B1E21
:1005600081E090E0A0E0B0E02E153F054007510784
:1005700018F080E090E0DC01820D931DA41DB51DF4
:10058000AA0CBB1CCC1CDD1C17FF09C061E0262E89
:10059000312C412C512CA228B328C428D5283197BE
:1005A00049F0EE0CFF1C001F111F9694879477945E
:1005B0006794C6CF6B897C89EB85FC856E0F7F1FA6
:1005C0006E5F7F4F7C8F6B8F61E0EA857A89E717DA
:1005D00009F460E06A8F6B8D7C8D10C0FC01E170C6
:1005E000F070309729F056954795379527955068C4
:1005F000B695A795979587956F5F7F4FB7FDEECF1F
:100600000CC0880F991FAA1FBB1F57FD8160220FC6
:10061000331F441F551F615070408030E0E09E073B
:10062000E0E0AE07E0E4BE0760F36B8F7C8F6FE71E
:10063000E62EF12C012D112DE822F9220A231B238D
:1006400060E4E616F1040105110561F487FD0AC0B6
:10065000211531054105510529F0805C9F4FAF4FB1
:10066000BF4F80788D8F9E8FAF8FB8A383E0898F27
:10067000CE01499602C080E091E00E94F704A09666
:10068000E2E10C941C0FA8E1B0E0E9E4F3E00C9483
:100690000C0F69837A838B839C832D833E834F83E6
:1006A00058878E01075F1F4FCE010196B8010E9447
:1006B000C50581E1E82EF12CEC0EFD1ECE0105965C
:1006C000B7010E94C5058985823040F08989823052
:1006D00028F0C801B7010E942E0601C08FEF68966E
:1006E000E6E00C94280FA8E1B0E0E9E7F3E00C9411
:1006F0000C0F69837A838B839C832D833E834F8386
:1007000058878E01075F1F4FCE010196B8010E94E6
:10071000C50581E1E82EF12CEC0EFD1ECE010596FB
:10072000B7010E94C5058985823040F089898230F1
:1007300028F0C801B7010E942E0601C08FEF68960D
:10074000E6E00C94280FA8E1B0E0E9EAF3E00C94AD
:100750000C0F69837A838B839C832D833E834F8325
:1007600058878E01075F1F4FCE010196B8010E9486
:10077000C50581E1E82EF12CEC0EFD1ECE0105969B
:10078000B7010E94C5058985823040F08989823091
:1007900028F0C801B7010E942E0601C081E06896CA
:1007A000E6E00C94280FACE0B0E0E9EDF3E00C9447
:1007B000100F69837A838B839C83CE010196BE01DF
:1007C0006B5F7F4F0E94C5058D81823081F1823041
:1007D00070F1843021F48E81882369F10AC02F8161
:1007E000388537FD24C06E812F3131053CF06623FA
:1007F00011F120E030E040E050E821C08EE190E0CF
:10080000821B930B29853A854B855C8504C05695E0
:100810004795379527958A95D2F7662381F05095AD
:100820004095309521953F4F4F4F5F4F08C020E0D6
:1008300030E0A90104C02FEF3FEF4FEF5FE7B901B0
:10084000CA012C96E2E00C942C0FA8E0B0E0EBE299
:10085000F4E00C940A0F7B018C011A82611571057A
:100860008105910519F482E089835FC083E0898363
:100870008EE1C82ED12CDC82CB82ED82FE820F83EA
:100880001887C801B7010E949D04FC013197F7FF4A
:100890003AC0AA27BB27AE1BBF0B21E030E040E0E7
:1008A00050E00A2E04C0220F331F441F551F0A9424
:1008B000D2F721503040404050402E213F2140236C
:1008C000512361E070E080E090E0211531054105A1
:1008D000510519F460E070E0CB0104C0169507954E
:1008E000F794E794AA95D2F7E62AF72A082B192B52
:1008F000ED82FE820F8318878EE190E08E1B9F0BA6
:100900009C838B8312C0309781F00E2E04C0EE0CB6
:10091000FF1C001F111F0A94D2F7ED82FE820F8385
:100920001887CE1ADF0ADC82CB82CE0101960E94A4
:10093000F7042896E8E00C94260FAF92BF92CF926E
:10094000DF92EF92FF920F931F937B018C0180E067
:10095000E81680E0F80681E0080780E0180758F400
:10096000EFEFEE16F1040105110509F090F480E0B7
:1009700090E0DC0117C0F0E0EF16F0E0FF06F0E0D9
:100980000F07F1E01F0750F480E190E0A0E0B0E035
:1009900009C088E090E0A0E0B0E004C088E190E009
:1009A000A0E0B0E020E230E040E050E0281B390B4E
:1009B0004A0B5B0B5701680104C0D694C794B794E7
:1009C000A7948A95D2F7D601C501885F9E4FFC0196
:1009D0008081281B310941095109C9011F910F91DB
:1009E000FF90EF90DF90CF90BF90AF900895EF927F
:1009F000FF920F931F93CF93DF93FC0124813581E6
:100A00004681578161818081823020F44061EFEF1F
:100A1000F0E0A3C0843009F49BC0823009F492C096
:100A2000211531054105510509F48FC00280F3817C
:100A3000E02D8FEFE238F8070CF05AC0C2E8DFEF84
:100A4000CE1BDF0BCA31D1056CF579018A010C2E62
:100A500004C016950795F794E7940A94D2F781E0BD
:100A600090E0A0E0B0E00C2E04C0880F991FAA1FF0
:100A7000BB1F0A94D2F70197A109B10982239323DE
:100A8000A423B52321E030E040E050E00097A10529
:100A9000B10519F420E030E0A9012E293F29402BAF
:100AA000512B03C020E030E0A901DA01C9018F77A2
:100AB0009070A070B07080349105A105B10539F433
:100AC00027FF09C0205C3F4F4F4F5F4F04C0215CA0
:100AD0003F4F4F4F5F4FE1E0F0E0203080E03807BC
:100AE00080E0480780E4580728F5E0E0F0E022C005
:100AF000E038F1056CF5E158FF4FDA01C9018F7755
:100B00009070A070B07080349105A105B10539F4E2
:100B100027FF09C0205C3F4F4F4F5F4F04C0215C4F
:100B20003F4F4F4F5F4F57FF05C05695479537953D
:100B30002795319687E056954795379527958A955D
:100B4000D1F70BC0E0E0F0E005C0E0E0F0E005C068
:100B5000EFEFF0E020E030E0A9018E2F87958827A5
:100B60008795942F9F77679566276795E695E22E80
:100B7000A92FA82BFE2FF62B622F732F8A2F9F2FC2
:100B8000CDB7DEB7E6E00C94280FDC01FB012C9119
:100B900011963C91119712968C911297482F4F778E
:100BA00050E0982F991F9927991F13966C911397CE
:100BB000862F880F892B90E0661F6627661F61834A
:100BC000009739F5211531054105510511F482E0F1
:100BD00029C082E89FEF9383828367E0220F331F4F
:100BE000441F551F6A95D1F783E0808309C0220F07
:100BF000331F441F551F8281938101979383828302
:100C0000203080E0380780E0480780E4580778F318
:100C100020C08F3F910579F421153105410551051B
:100C200019F484E08083089544FF03C081E0808349
:100C300010C010820EC08F5790409383828383E050
:100C4000808387E0220F331F441F551F8A95D1F7F9
:100C5000506424833583468357830895FC01DB0168
:100C60009081923008F449C08C91823008F445C0DC
:100C7000943051F461818430B1F511962C91119723
:100C800030E0261B310941C0843021F0923041F41C
:100C90008230B1F111968C9111978823A1F12DC06A
:100CA0006181823001F111968C9111976817D9F406
:100CB0002281338112968D919C911397821793070D
:100CC00094F028173907BCF024813581468157817B
:100CD00014968D919D910D90BC91A02D8217930734
:100CE000A407B50718F4662341F00DC0281739078B
:100CF0004A075B0728F4662331F021E030E005C0A5
:100D000020E030E002C02FEF3FEFC9010895DF93EC
:100D1000CF93CDB7DEB785E290E0FC018081882FCC
:100D200090E080719070009751F485E290E025E2A8
:100D300030E0F90120812061FC01208309C085E2B7
:100D400090E025E230E0F90120812F7EFC01208334
:100D5000CF91DF9108950F931F93DF93CF93CDB77A
:100D6000DEB7C455D0400FB6F894DEBF0FBECDBF7E
:100D700084E290E024E230E0F90120812860FC0167
:100D800020838CE490E028ECFC01208384E290E056
:100D900024E230E0F90120812061FC01208385E21A
:100DA00090E025E230E0F90120812F7EFC012083D4
:100DB00084E490E0FC01108285E490E023E0FC01F3
:100DC00020838EE690E021E0FC01208380E890E023
:100DD0002AEAFC01208380E990E022E8FC012083DC
:100DE00081E890E02CE1FC01208381E990E02CE196
:100DF000FC01208386E890E021EE34E0FC013183A1
:100E0000208386E990E021EE34E0FC0131832083E9
:100E100084E290E024E230E0F90120812062FC01CC
:100E2000208384E290E024E230E0F9012081206414
:100E3000FC01208384E290E024E230E0F90120818B
:100E40002068FC01208387E290E027E230E0F9018E
:100E500020812064FC01208310925D0210925C02CC
:100E600089E690E02FEFFC0120838AE690E0FC0108
:100E700010828DE390E02FE0FC0120838AE290E075
:100E80002AE230E0F90120812E7FFC0120838BE2F1
:100E900090E02BE230E0F90120812160FC01208309
:100EA0008AE290E02AE230E0F90120812D7FFC0106
:100EB00020838BE290E02BE230E0F9012081226078
:100EC000FC0120838AE290E02AE230E0F9012081EF
:100ED0002B7FFC0120838BE290E02BE230E0F901D4
:100EE00020812460FC0120838AE290E02AE230E045
:100EF000F9012081277FFC0120838BE290E02BE227
:100F000030E0F90120812860FC012083789488E892
:100F100090E02FE330E0FC01318320838AE890E009
:100F20002FE330E0FC01318320838CE890E02FE355
:100F300030E0FC013183208388E990E02FE330E04A
:100F4000FC013183208380E090E0A8ECB2E4898347
:100F50009A83AB83BC8369817A818B819C8120E0F9
:100F600030E04AE755E40E944902DC01CB018D8361
:100F70009E83AF83B88711E06D817E818F819885D4
:100F800020E030E040E85FE30E94A30388230CF0F8
:100F900010E0112329F081E090E09A87898746C00C
:100FA00011E06D817E818F81988520E03FEF4FE7D2
:100FB00057E40E94430318160CF010E0112361F16E
:100FC00069817A818B819C8120E030E040E251E4AC
:100FD0000E944902DC01CB01BC01CD010E947500D9
:100FE000DC01CB019A87898712C080E991E09C8758
:100FF0008B878B859C858C01C8010197F1F78C014B
:101000001C870B8789859A8501979A8789878985A7
:101010009A85009751F717C06D817E818F819885E1
:101020000E947500DC01CB019A87898789859A85A2
:101030009E878D878D859E858C01F8013197F1F70C
:101040008F011E870D8788E890E02CE930E0FC01D5
:10105000318320838AE890E02CE930E0FC01318381
:1010600020838CE890E02CE930E0FC013183208380
:1010700088E990E02CE930E0FC013183208380E0B6
:1010800090E0A8ECB2E48F87988BA98BBA8B6F8520
:10109000788989899A8920E030E04AE755E40E94FE
:1010A0004902DC01CB018B8B9C8BAD8BBE8B11E09D
:1010B0006B897C898D899E8920E030E040E85FE380
:1010C0000E94A30388230CF010E0112329F081E093
:1010D00090E0988F8F8B46C011E06B897C898D8959
:1010E0009E8920E03FEF4FE757E40E944303181624
:1010F0000CF010E0112361F16F85788989899A8954
:1011000020E030E040E251E40E944902DC01CB01E2
:10111000BC01CD010E947500DC01CB01988F8F8B43
:1011200012C080E991E09A8F898F898D9A8D8C0108
:10113000C8010197F1F78C011A8F098F8F89988D5B
:101140000197988F8F8B8F89988D009751F717C0D3
:101150006B897C898D899E890E947500DC01CB0199
:10116000988F8F8B8F89988D9C8F8B8F8B8D9C8D7B
:101170008C01F8013197F1F78F011C8F0B8F88E8F4
:1011800090E02FE330E0FC01318320838AE890E097
:101190002FE330E0FC01318320838CE890E02FE3E3
:1011A00030E0FC013183208388E990E02FE330E0D8
:1011B000FC013183208380E090E0A8ECB2E48D8FC5
:1011C0009E8FAF8FB8A36D8D7E8D8F8D98A120E0FF
:1011D00030E04AE755E40E944902DC01CB0189A3D3
:1011E0009AA3ABA3BCA311E069A17AA18BA19CA196
:1011F00020E030E040E85FE30E94A30388230CF086
:1012000010E0112329F081E090E09EA38DA346C059
:1012100011E069A17AA18BA19CA120E03FEF4FE7EB
:1012200057E40E94430318160CF010E0112361F1FB
:101230006D8D7E8D8F8D98A120E030E040E251E4ED
:101240000E944902DC01CB01BC01CD010E94750066
:10125000DC01CB019EA38DA312C080E991E098A789
:101260008FA38FA198A58C01C8010197F1F78C017C
:1012700018A70FA38DA19EA101979EA38DA38DA159
:101280009EA1009751F717C069A17AA18BA19CA1DB
:101290000E947500DC01CB019EA38DA38DA19EA1B0
:1012A0009AA789A789A59AA58C01F8013197F1F72A
:1012B0008F011AA709A788E890E028ED34E0FC0127
:1012C000318320838AE890E028ED34E0FC0131830B
:1012D00020838CE890E028ED34E0FC01318320830A
:1012E00088E990E028ED34E0FC013183208385E239
:1012F00090E02FEFFC01208380E090E0A8ECB2E4C6
:101300008BA79CA7ADA7BEA76BA57CA58DA59EA509
:1013100020E030E04AE755E40E944902DC01CB01BD
:101320008FA798ABA9ABBAAB11E06FA578A989A933
:101330009AA920E030E040E85FE30E94A3038823FD
:101340000CF010E0112329F081E090E09CAB8BAB16
:1013500046C011E06FA578A989A99AA920E03FEFBE
:101360004FE757E40E94430318160CF010E01123D6
:1013700061F16BA57CA58DA59EA520E030E040E243
:1013800051E40E944902DC01CB01BC01CD010E9465
:101390007500DC01CB019CAB8BAB12C080E991E006
:1013A0009EAB8DAB8DA99EA98C01C8010197F1F769
:1013B0008C011EAB0DAB8BA99CA901979CAB8BAB91
:1013C0008BA99CA9009751F717C06FA578A989A987
:1013D0009AA90E947500DC01CB019CAB8BAB8BA959
:1013E0009CA998AF8FAB8FA998AD8C01F80131976C
:1013F000F1F78F0118AF0FAB85E290E0FC0110828E
:1014000080E090E0A8ECB2E489AF9AAFABAFBCAF9C
:1014100069AD7AAD8BAD9CAD20E030E04AE755E494
:101420000E944902DC01CB019E01235C3F4FF90180
:1014300080839183A283B38311E0CE01CD96FC011A
:10144000608171818281938120E030E040E85FE338
:101450000E94A30388230CF010E0112349F0CE0171
:101460008F5B9F4F21E030E0FC01318320836EC011
:1014700011E0CE01CD96FC01608171818281938162
:1014800020E03FEF4FE757E40E94430318160CF0AB
:1014900010E0112309F449C069AD7AAD8BAD9CAD64
:1014A00020E030E040E251E40E944902DC01CB013F
:1014B0008E010F5B1F4FBC01CD010E947500DC0146
:1014C000CB01F8019183808327C0CE018D5B9F4FB4
:1014D00020E931E0FC0131832083CE018D5B9F4FF9
:1014E000FC01808191818C01C8010197F1F78C0189
:1014F000CE018D5B9F4FFC0111830083CE018F5B7A
:101500009F4F9E012F5B3F4FF90120813181215078
:101510003040FC0131832083CE018F5B9F4FFC0163
:1015200080819181009789F62EC08E010F5B1F4F3D
:10153000CE01CD96FC0160817181828193810E94F0
:101540007500DC01CB01F80191838083CE018B5BB8
:101550009F4F9E012F5B3F4FF90120813181FC019C
:1015600031832083CE018B5B9F4FFC018081918171
:101570008C01C8010197F1F78C01CE018B5B9F4F65
:10158000FC01118300839E01295B3F4F80E090E0C6
:10159000A8ECB2E4F90180839183A283B3838E0126
:1015A000055B1F4FCE01895B9F4FFC0160817181FC
:1015B0008281938120E030E04AE755E40E944902AD
:1015C000DC01CB01F80180839183A283B383CE0138
:1015D000855B9F4F11E0FC01608171818281938165
:1015E00020E030E040E85FE30E94A30388230CF092
:1015F00010E0112349F0CE01815B9F4F21E030E0E4
:10160000FC013183208374C0CE01855B9F4F11E0C4
:10161000FC01608171818281938120E03FEF4FE77F
:1016200057E40E94430318160CF010E0112309F44C
:101630004DC0CE01895B9F4FFC0160817181828129
:10164000938120E030E040E251E40E944902DC0155
:10165000CB018E01015B1F4FBC01CD010E947500C3
:10166000DC01CB01F8019183808327C0CE018F5A22
:101670009F4F20E931E0FC0131832083CE018F5A56
:101680009F4FFC01808191818C01C8010197F1F786
:101690008C01CE018F5A9F4FFC0111830083CE0134
:1016A000815B9F4F9E01215B3F4FF901208131817A
:1016B00021503040FC0131832083CE01815B9F4F5C
:1016C000FC0180819181009789F62FC08E01015B1A
:1016D0001F4FCE01855B9F4FFC016081718182812C
:1016E00093810E947500DC01CB01F8019183808316
:1016F000CE018D5A9F4F9E01215B3F4FF901208102
:101700003181FC0131832083CE018D5A9F4FFC0132
:10171000808191818C01C8010197F1F78C01CE0184
:101720008D5A9F4FFC0111830083FFCF1F920F92B0
:101730000FB60F9211242F938F939F93EF93FF93E4
:10174000DF93CF9300D0CDB7DEB78EE490E0FC01FD
:10175000808180934A0281E090E09A83898316C059
:1017600000008DE490E0FC0180818823D4F78EE4B2
:1017700090E0FC01208189819A81865B9D4FFC016C
:10178000208389819A8101969A83898389819A81AC
:10179000883091052CF381E090E090935D02809376
:1017A0005C020F900F90CF91DF91FF91EF919F918D
:1017B0008F912F910F900FBE0F901F9018951F9231
:1017C0000F920FB60F9211242F933F934F935F9375
:1017D0006F937F938F939F93AF93BF93EF93FF93F9
:1017E000DF93CF93CDB7DEB786E490E0FC01808134
:1017F000282F30E08091220290912302820F931FC4
:10180000909323028093220220912202309123029E
:101810008091200290912102A901481B590BCA0115
:1018200090932302809322028091220290912302BE
:10183000873D910508F454C08091220290912302C3
:101840009C0140E050E084E291EBA0E2B0E0BC01FA
:10185000CD010E94C30EDA01C90190931902809351
:101860001802209118023091190280911E02909165
:101870001F02F901E81BF90BCF01209122023091E0
:101880002302B9010E94AF0E9B01C901CC01A0E067
:10189000B0E0BC01CD010E942504DC01CB018093A6
:1018A0001A0290931B02A0931C02B0931D02809118
:1018B00018029091190290931F0280931E021092B9
:1018C00023021092220286E490E0FC018081882F9E
:1018D00090E090932102809320020E94870601C02D
:1018E0000000CF91DF91FF91EF91BF91AF919F9158
:1018F0008F917F916F915F914F913F912F910F90B9
:101900000FBE0F901F9018951F920F920FB60F9257
:1019100011242F933F934F935F936F937F938F93F4
:101920009F93AF93BF93EF93FF93DF93CF93CDB785
:10193000DEB786E490E0FC018081282F30E08091C2
:101940002E0290912F02820F931F90932F0280936B
:101950002E0220912E0230912F0280912C02909124
:101960002D02A901481B590BCA0190932F028093A5
:101970002E0280912E0290912F02873D910508F44E
:1019800054C080912E0290912F029C0140E050E0C3
:1019900084E291EBA0E2B0E0BC01CD010E94C30E55
:1019A000DA01C90190932502809324022091240238
:1019B0003091250280912A0290912B02F901E81BB7
:1019C000F90BCF0120912E0230912F02B9010E9414
:1019D000AF0E9B01C901CC01A0E0B0E0BC01CD017C
:1019E0000E942504DC01CB018093260290932702FC
:1019F000A0932802B093290280912402909125029D
:101A000090932B0280932A0210922F0210922E02A2
:101A100086E490E0FC018081882F90E090932D0275
:101A200080932C020E94870601C00000CF91DF91B5
:101A3000FF91EF91BF91AF919F918F917F916F91A6
:101A40005F914F913F912F910F900FBE0F901F907C
:101A500018951F920F920FB60F9211242F933F9358
:101A60004F935F936F937F938F939F93AF93BF93A6
:101A7000EF93FF93DF93CF93CDB7DEB786E490E08B
:101A8000FC018081282F30E080913A0290913B0246
:101A9000820F931F90933B0280933A0220913A0267
:101AA00030913B028091380290913902A901481B84
:101AB000590BCA0190933B0280933A0280913A02FB
:101AC00090913B02873D910508F454C080913A0201
:101AD00090913B029C0140E050E084E291EBA0E257
:101AE000B0E0BC01CD010E94C30EDA01C9019093A0
:101AF0003102809330022091300230913102809186
:101B0000360290913702F901E81BF90BCF012091C1
:101B10003A0230913B02B9010E94AF0E9B01C9010C
:101B2000CC01A0E0B0E0BC01CD010E942504DC01A5
:101B3000CB018093320290933302A0933402B0938E
:101B40003502809130029091310290933702809358
:101B5000360210923B0210923A0286E490E0FC01B9
:101B60008081882F90E090933902809338020E9400
:101B7000870601C00000CF91DF91FF91EF91BF91E7
:101B8000AF919F918F917F916F915F914F913F9115
:101B90002F910F900FBE0F901F9018951F920F92CC
:101BA0000FB60F9211242F933F934F935F936F9330
:101BB0007F938F939F93AF93BF93EF93FF93DF93A5
:101BC000CF93CDB7DEB786E490E0FC018081282F6B
:101BD00030E08091460290914702820F931F9093CC
:101BE000470280934602209146023091470280913D
:101BF000440290914502A901481B590BCA019093D8
:101C00004702809346028091460290914702873DA9
:101C1000910508F454C080914602909147029C01BE
:101C200040E050E084E291EBA0E2B0E0BC01CD01E5
:101C30000E94C30EDA01C90190933D0280933C02D9
:101C400020913C0230913D028091420290914302EA
:101C5000F901E81BF90BCF012091460230914702B0
:101C6000B9010E94AF0E9B01C901CC01A0E0B0E018
:101C7000BC01CD010E942504DC01CB0180933E0212
:101C800090933F02A0934002B093410280913C02A6
:101C900090913D029093430280934202109247023A
:101CA0001092460286E490E0FC018081882F90E04B
:101CB00090934502809344020E94870601C0000071
:101CC000CF91DF91FF91EF91BF91AF919F918F9154
:101CD0007F916F915F914F913F912F910F900FBE28
:101CE0000F901F9018951F920F920FB60F9211240C
:101CF0008F939F93DF93CF93CDB7DEB7809122026E
:101D00009091230281509F4F90932302809322024F
:101D100080912E0290912F0281509F4F90932F021D
:101D200080932E0280913A0290913B0281509F4F06
:101D300090933B0280933A02809146029091470231
:101D400081509F4F9093470280934602CF91DF913D
:101D50009F918F910F900FBE0F901F901895AA1B07
:101D6000BB1B51E107C0AA1FBB1FA617B70710F086
:101D7000A61BB70B881F991F5A95A9F780959095B8
:101D8000BC01CD01089597FB092E05260ED057FD05
:101D900004D014D00AD0001C38F4509540953095EA
:101DA00021953F4F4F4F5F4F0895F6F790958095DF
:101DB000709561957F4F8F4F9F4F0895A1E21A2E26
:101DC000AA1BBB1BFD010DC0AA1FBB1FEE1FFF1FDF
:101DD000A217B307E407F50720F0A21BB30BE40B2F
:101DE000F50B661F771F881F991F1A9469F7609576
:101DF0007095809590959B01AC01BD01CF01089530
:101E00002F923F924F925F926F927F928F929F920A
:101E1000AF92BF92CF92DF92EF92FF920F931F93F8
:101E2000CF93DF93CDB7DEB7CA1BDB0B0FB6F894A9
:101E3000DEBF0FBECDBF09942A88398848885F84E9
:101E40006E847D848C849B84AA84B984C884DF805A
:101E5000EE80FD800C811B81AA81B981CE0FD11D3E
:101E60000FB6F894DEBF0FBECDBFED010895F89414
:021E7000FFCFA2
:101E7200000000000000000000010202030303034F
:101E82000404040404040404050505050505050508
:101E920005050505050505050606060606060606E8
:101EA20006060606060606060606060606060606D0
:101EB20006060606060606060707070707070707B8
:101EC20007070707070707070707070707070707A0
:101ED2000707070707070707070707070707070790
:101EE2000707070707070707070707070707070780
:101EF2000707070707070707080808080808080868
:101F0200080808080808080808080808080808084F
:101F1200080808080808080808080808080808083F
:101F2200080808080808080808080808080808082F
:101F3200080808080808080808080808080808081F
:101F4200080808080808080808080808080808080F
:101F520008080808080808080808080808080808FF
:101F620008080808080808080808080808080808EF
:101F72000808080808080808E8038403E80384033B
:081F8200E8038403E803840373
:00000001FF
